{
	"data": {
		"bytecode": {
			"linkReferences": {},
			"object": "608060405234801561001057600080fd5b506040518060400160405280600b81526020017f486172697320417165656c0000000000000000000000000000000000000000008152506000908051906020019061005c92919061006a565b50601260018190555061016e565b8280546100769061010d565b90600052602060002090601f01602090048101928261009857600085556100df565b82601f106100b157805160ff19168380011785556100df565b828001600101855582156100df579182015b828111156100de5782518255916020019190600101906100c3565b5b5090506100ec91906100f0565b5090565b5b808211156101095760008160009055506001016100f1565b5090565b6000600282049050600182168061012557607f821691505b602082108114156101395761013861013f565b5b50919050565b7f4e487b7100000000000000000000000000000000000000000000000000000000600052602260045260246000fd5b6105bf8061017d6000396000f3fe608060405234801561001057600080fd5b506004361061004c5760003560e01c806317d7de7c146100515780636840f0ae1461006f578063967e6e6514610079578063c47f002714610097575b600080fd5b6100596100b3565b6040516100669190610323565b60405180910390f35b610077610145565b005b61008161015b565b60405161008e9190610345565b60405180910390f35b6100b160048036038101906100ac9190610292565b610165565b005b6060600080546100c290610474565b80601f01602080910402602001604051908101604052809291908181526020018280546100ee90610474565b801561013b5780601f106101105761010080835404028352916020019161013b565b820191906000526020600020905b81548152906001019060200180831161011e57829003601f168201915b5050505050905090565b6001805461015391906103d2565b600181905550565b6000600154905090565b806000908051906020019061017b92919061017f565b5050565b82805461018b90610474565b90600052602060002090601f0160209004810192826101ad57600085556101f4565b82601f106101c657805160ff19168380011785556101f4565b828001600101855582156101f4579182015b828111156101f35782518255916020019190600101906101d8565b5b5090506102019190610205565b5090565b5b8082111561021e576000816000905550600101610206565b5090565b600061023561023084610385565b610360565b90508281526020810184848401111561025157610250610569565b5b61025c848285610432565b509392505050565b600082601f83011261027957610278610564565b5b8135610289848260208601610222565b91505092915050565b6000602082840312156102a8576102a7610573565b5b600082013567ffffffffffffffff8111156102c6576102c561056e565b5b6102d284828501610264565b91505092915050565b60006102e6826103b6565b6102f081856103c1565b9350610300818560208601610441565b61030981610578565b840191505092915050565b61031d81610428565b82525050565b6000602082019050818103600083015261033d81846102db565b905092915050565b600060208201905061035a6000830184610314565b92915050565b600061036a61037b565b905061037682826104a6565b919050565b6000604051905090565b600067ffffffffffffffff8211156103a05761039f610535565b5b6103a982610578565b9050602081019050919050565b600081519050919050565b600082825260208201905092915050565b60006103dd82610428565b91506103e883610428565b9250827fffffffffffffffffffffffffffffffffffffffffffffffffffffffffffffffff0382111561041d5761041c6104d7565b5b828201905092915050565b6000819050919050565b82818337600083830152505050565b60005b8381101561045f578082015181840152602081019050610444565b8381111561046e576000848401525b50505050565b6000600282049050600182168061048c57607f821691505b602082108114156104a05761049f610506565b5b50919050565b6104af82610578565b810181811067ffffffffffffffff821117156104ce576104cd610535565b5b80604052505050565b7f4e487b7100000000000000000000000000000000000000000000000000000000600052601160045260246000fd5b7f4e487b7100000000000000000000000000000000000000000000000000000000600052602260045260246000fd5b7f4e487b7100000000000000000000000000000000000000000000000000000000600052604160045260246000fd5b600080fd5b600080fd5b600080fd5b600080fd5b6000601f19601f830116905091905056fea2646970667358221220e30b5751a9243e286f760ed0f86ec9c54d3c5d8a115b0ee88436d4cb3286ffbf64736f6c63430008070033",
			"opcodes": "PUSH1 0x80 PUSH1 0x40 MSTORE CALLVALUE DUP1 ISZERO PUSH2 0x10 JUMPI PUSH1 0x0 DUP1 REVERT JUMPDEST POP PUSH1 0x40 MLOAD DUP1 PUSH1 0x40 ADD PUSH1 0x40 MSTORE DUP1 PUSH1 0xB DUP2 MSTORE PUSH1 0x20 ADD PUSH32 0x486172697320417165656C000000000000000000000000000000000000000000 DUP2 MSTORE POP PUSH1 0x0 SWAP1 DUP1 MLOAD SWAP1 PUSH1 0x20 ADD SWAP1 PUSH2 0x5C SWAP3 SWAP2 SWAP1 PUSH2 0x6A JUMP JUMPDEST POP PUSH1 0x12 PUSH1 0x1 DUP2 SWAP1 SSTORE POP PUSH2 0x16E JUMP JUMPDEST DUP3 DUP1 SLOAD PUSH2 0x76 SWAP1 PUSH2 0x10D JUMP JUMPDEST SWAP1 PUSH1 0x0 MSTORE PUSH1 0x20 PUSH1 0x0 KECCAK256 SWAP1 PUSH1 0x1F ADD PUSH1 0x20 SWAP1 DIV DUP2 ADD SWAP3 DUP3 PUSH2 0x98 JUMPI PUSH1 0x0 DUP6 SSTORE PUSH2 0xDF JUMP JUMPDEST DUP3 PUSH1 0x1F LT PUSH2 0xB1 JUMPI DUP1 MLOAD PUSH1 0xFF NOT AND DUP4 DUP1 ADD OR DUP6 SSTORE PUSH2 0xDF JUMP JUMPDEST DUP3 DUP1 ADD PUSH1 0x1 ADD DUP6 SSTORE DUP3 ISZERO PUSH2 0xDF JUMPI SWAP2 DUP3 ADD JUMPDEST DUP3 DUP2 GT ISZERO PUSH2 0xDE JUMPI DUP3 MLOAD DUP3 SSTORE SWAP2 PUSH1 0x20 ADD SWAP2 SWAP1 PUSH1 0x1 ADD SWAP1 PUSH2 0xC3 JUMP JUMPDEST JUMPDEST POP SWAP1 POP PUSH2 0xEC SWAP2 SWAP1 PUSH2 0xF0 JUMP JUMPDEST POP SWAP1 JUMP JUMPDEST JUMPDEST DUP1 DUP3 GT ISZERO PUSH2 0x109 JUMPI PUSH1 0x0 DUP2 PUSH1 0x0 SWAP1 SSTORE POP PUSH1 0x1 ADD PUSH2 0xF1 JUMP JUMPDEST POP SWAP1 JUMP JUMPDEST PUSH1 0x0 PUSH1 0x2 DUP3 DIV SWAP1 POP PUSH1 0x1 DUP3 AND DUP1 PUSH2 0x125 JUMPI PUSH1 0x7F DUP3 AND SWAP2 POP JUMPDEST PUSH1 0x20 DUP3 LT DUP2 EQ ISZERO PUSH2 0x139 JUMPI PUSH2 0x138 PUSH2 0x13F JUMP JUMPDEST JUMPDEST POP SWAP2 SWAP1 POP JUMP JUMPDEST PUSH32 0x4E487B7100000000000000000000000000000000000000000000000000000000 PUSH1 0x0 MSTORE PUSH1 0x22 PUSH1 0x4 MSTORE PUSH1 0x24 PUSH1 0x0 REVERT JUMPDEST PUSH2 0x5BF DUP1 PUSH2 0x17D PUSH1 0x0 CODECOPY PUSH1 0x0 RETURN INVALID PUSH1 0x80 PUSH1 0x40 MSTORE CALLVALUE DUP1 ISZERO PUSH2 0x10 JUMPI PUSH1 0x0 DUP1 REVERT JUMPDEST POP PUSH1 0x4 CALLDATASIZE LT PUSH2 0x4C JUMPI PUSH1 0x0 CALLDATALOAD PUSH1 0xE0 SHR DUP1 PUSH4 0x17D7DE7C EQ PUSH2 0x51 JUMPI DUP1 PUSH4 0x6840F0AE EQ PUSH2 0x6F JUMPI DUP1 PUSH4 0x967E6E65 EQ PUSH2 0x79 JUMPI DUP1 PUSH4 0xC47F0027 EQ PUSH2 0x97 JUMPI JUMPDEST PUSH1 0x0 DUP1 REVERT JUMPDEST PUSH2 0x59 PUSH2 0xB3 JUMP JUMPDEST PUSH1 0x40 MLOAD PUSH2 0x66 SWAP2 SWAP1 PUSH2 0x323 JUMP JUMPDEST PUSH1 0x40 MLOAD DUP1 SWAP2 SUB SWAP1 RETURN JUMPDEST PUSH2 0x77 PUSH2 0x145 JUMP JUMPDEST STOP JUMPDEST PUSH2 0x81 PUSH2 0x15B JUMP JUMPDEST PUSH1 0x40 MLOAD PUSH2 0x8E SWAP2 SWAP1 PUSH2 0x345 JUMP JUMPDEST PUSH1 0x40 MLOAD DUP1 SWAP2 SUB SWAP1 RETURN JUMPDEST PUSH2 0xB1 PUSH1 0x4 DUP1 CALLDATASIZE SUB DUP2 ADD SWAP1 PUSH2 0xAC SWAP2 SWAP1 PUSH2 0x292 JUMP JUMPDEST PUSH2 0x165 JUMP JUMPDEST STOP JUMPDEST PUSH1 0x60 PUSH1 0x0 DUP1 SLOAD PUSH2 0xC2 SWAP1 PUSH2 0x474 JUMP JUMPDEST DUP1 PUSH1 0x1F ADD PUSH1 0x20 DUP1 SWAP2 DIV MUL PUSH1 0x20 ADD PUSH1 0x40 MLOAD SWAP1 DUP2 ADD PUSH1 0x40 MSTORE DUP1 SWAP3 SWAP2 SWAP1 DUP2 DUP2 MSTORE PUSH1 0x20 ADD DUP3 DUP1 SLOAD PUSH2 0xEE SWAP1 PUSH2 0x474 JUMP JUMPDEST DUP1 ISZERO PUSH2 0x13B JUMPI DUP1 PUSH1 0x1F LT PUSH2 0x110 JUMPI PUSH2 0x100 DUP1 DUP4 SLOAD DIV MUL DUP4 MSTORE SWAP2 PUSH1 0x20 ADD SWAP2 PUSH2 0x13B JUMP JUMPDEST DUP3 ADD SWAP2 SWAP1 PUSH1 0x0 MSTORE PUSH1 0x20 PUSH1 0x0 KECCAK256 SWAP1 JUMPDEST DUP2 SLOAD DUP2 MSTORE SWAP1 PUSH1 0x1 ADD SWAP1 PUSH1 0x20 ADD DUP1 DUP4 GT PUSH2 0x11E JUMPI DUP3 SWAP1 SUB PUSH1 0x1F AND DUP3 ADD SWAP2 JUMPDEST POP POP POP POP POP SWAP1 POP SWAP1 JUMP JUMPDEST PUSH1 0x1 DUP1 SLOAD PUSH2 0x153 SWAP2 SWAP1 PUSH2 0x3D2 JUMP JUMPDEST PUSH1 0x1 DUP2 SWAP1 SSTORE POP JUMP JUMPDEST PUSH1 0x0 PUSH1 0x1 SLOAD SWAP1 POP SWAP1 JUMP JUMPDEST DUP1 PUSH1 0x0 SWAP1 DUP1 MLOAD SWAP1 PUSH1 0x20 ADD SWAP1 PUSH2 0x17B SWAP3 SWAP2 SWAP1 PUSH2 0x17F JUMP JUMPDEST POP POP JUMP JUMPDEST DUP3 DUP1 SLOAD PUSH2 0x18B SWAP1 PUSH2 0x474 JUMP JUMPDEST SWAP1 PUSH1 0x0 MSTORE PUSH1 0x20 PUSH1 0x0 KECCAK256 SWAP1 PUSH1 0x1F ADD PUSH1 0x20 SWAP1 DIV DUP2 ADD SWAP3 DUP3 PUSH2 0x1AD JUMPI PUSH1 0x0 DUP6 SSTORE PUSH2 0x1F4 JUMP JUMPDEST DUP3 PUSH1 0x1F LT PUSH2 0x1C6 JUMPI DUP1 MLOAD PUSH1 0xFF NOT AND DUP4 DUP1 ADD OR DUP6 SSTORE PUSH2 0x1F4 JUMP JUMPDEST DUP3 DUP1 ADD PUSH1 0x1 ADD DUP6 SSTORE DUP3 ISZERO PUSH2 0x1F4 JUMPI SWAP2 DUP3 ADD JUMPDEST DUP3 DUP2 GT ISZERO PUSH2 0x1F3 JUMPI DUP3 MLOAD DUP3 SSTORE SWAP2 PUSH1 0x20 ADD SWAP2 SWAP1 PUSH1 0x1 ADD SWAP1 PUSH2 0x1D8 JUMP JUMPDEST JUMPDEST POP SWAP1 POP PUSH2 0x201 SWAP2 SWAP1 PUSH2 0x205 JUMP JUMPDEST POP SWAP1 JUMP JUMPDEST JUMPDEST DUP1 DUP3 GT ISZERO PUSH2 0x21E JUMPI PUSH1 0x0 DUP2 PUSH1 0x0 SWAP1 SSTORE POP PUSH1 0x1 ADD PUSH2 0x206 JUMP JUMPDEST POP SWAP1 JUMP JUMPDEST PUSH1 0x0 PUSH2 0x235 PUSH2 0x230 DUP5 PUSH2 0x385 JUMP JUMPDEST PUSH2 0x360 JUMP JUMPDEST SWAP1 POP DUP3 DUP2 MSTORE PUSH1 0x20 DUP2 ADD DUP5 DUP5 DUP5 ADD GT ISZERO PUSH2 0x251 JUMPI PUSH2 0x250 PUSH2 0x569 JUMP JUMPDEST JUMPDEST PUSH2 0x25C DUP5 DUP3 DUP6 PUSH2 0x432 JUMP JUMPDEST POP SWAP4 SWAP3 POP POP POP JUMP JUMPDEST PUSH1 0x0 DUP3 PUSH1 0x1F DUP4 ADD SLT PUSH2 0x279 JUMPI PUSH2 0x278 PUSH2 0x564 JUMP JUMPDEST JUMPDEST DUP2 CALLDATALOAD PUSH2 0x289 DUP5 DUP3 PUSH1 0x20 DUP7 ADD PUSH2 0x222 JUMP JUMPDEST SWAP2 POP POP SWAP3 SWAP2 POP POP JUMP JUMPDEST PUSH1 0x0 PUSH1 0x20 DUP3 DUP5 SUB SLT ISZERO PUSH2 0x2A8 JUMPI PUSH2 0x2A7 PUSH2 0x573 JUMP JUMPDEST JUMPDEST PUSH1 0x0 DUP3 ADD CALLDATALOAD PUSH8 0xFFFFFFFFFFFFFFFF DUP2 GT ISZERO PUSH2 0x2C6 JUMPI PUSH2 0x2C5 PUSH2 0x56E JUMP JUMPDEST JUMPDEST PUSH2 0x2D2 DUP5 DUP3 DUP6 ADD PUSH2 0x264 JUMP JUMPDEST SWAP2 POP POP SWAP3 SWAP2 POP POP JUMP JUMPDEST PUSH1 0x0 PUSH2 0x2E6 DUP3 PUSH2 0x3B6 JUMP JUMPDEST PUSH2 0x2F0 DUP2 DUP6 PUSH2 0x3C1 JUMP JUMPDEST SWAP4 POP PUSH2 0x300 DUP2 DUP6 PUSH1 0x20 DUP7 ADD PUSH2 0x441 JUMP JUMPDEST PUSH2 0x309 DUP2 PUSH2 0x578 JUMP JUMPDEST DUP5 ADD SWAP2 POP POP SWAP3 SWAP2 POP POP JUMP JUMPDEST PUSH2 0x31D DUP2 PUSH2 0x428 JUMP JUMPDEST DUP3 MSTORE POP POP JUMP JUMPDEST PUSH1 0x0 PUSH1 0x20 DUP3 ADD SWAP1 POP DUP2 DUP2 SUB PUSH1 0x0 DUP4 ADD MSTORE PUSH2 0x33D DUP2 DUP5 PUSH2 0x2DB JUMP JUMPDEST SWAP1 POP SWAP3 SWAP2 POP POP JUMP JUMPDEST PUSH1 0x0 PUSH1 0x20 DUP3 ADD SWAP1 POP PUSH2 0x35A PUSH1 0x0 DUP4 ADD DUP5 PUSH2 0x314 JUMP JUMPDEST SWAP3 SWAP2 POP POP JUMP JUMPDEST PUSH1 0x0 PUSH2 0x36A PUSH2 0x37B JUMP JUMPDEST SWAP1 POP PUSH2 0x376 DUP3 DUP3 PUSH2 0x4A6 JUMP JUMPDEST SWAP2 SWAP1 POP JUMP JUMPDEST PUSH1 0x0 PUSH1 0x40 MLOAD SWAP1 POP SWAP1 JUMP JUMPDEST PUSH1 0x0 PUSH8 0xFFFFFFFFFFFFFFFF DUP3 GT ISZERO PUSH2 0x3A0 JUMPI PUSH2 0x39F PUSH2 0x535 JUMP JUMPDEST JUMPDEST PUSH2 0x3A9 DUP3 PUSH2 0x578 JUMP JUMPDEST SWAP1 POP PUSH1 0x20 DUP2 ADD SWAP1 POP SWAP2 SWAP1 POP JUMP JUMPDEST PUSH1 0x0 DUP2 MLOAD SWAP1 POP SWAP2 SWAP1 POP JUMP JUMPDEST PUSH1 0x0 DUP3 DUP3 MSTORE PUSH1 0x20 DUP3 ADD SWAP1 POP SWAP3 SWAP2 POP POP JUMP JUMPDEST PUSH1 0x0 PUSH2 0x3DD DUP3 PUSH2 0x428 JUMP JUMPDEST SWAP2 POP PUSH2 0x3E8 DUP4 PUSH2 0x428 JUMP JUMPDEST SWAP3 POP DUP3 PUSH32 0xFFFFFFFFFFFFFFFFFFFFFFFFFFFFFFFFFFFFFFFFFFFFFFFFFFFFFFFFFFFFFFFF SUB DUP3 GT ISZERO PUSH2 0x41D JUMPI PUSH2 0x41C PUSH2 0x4D7 JUMP JUMPDEST JUMPDEST DUP3 DUP3 ADD SWAP1 POP SWAP3 SWAP2 POP POP JUMP JUMPDEST PUSH1 0x0 DUP2 SWAP1 POP SWAP2 SWAP1 POP JUMP JUMPDEST DUP3 DUP2 DUP4 CALLDATACOPY PUSH1 0x0 DUP4 DUP4 ADD MSTORE POP POP POP JUMP JUMPDEST PUSH1 0x0 JUMPDEST DUP4 DUP2 LT ISZERO PUSH2 0x45F JUMPI DUP1 DUP3 ADD MLOAD DUP2 DUP5 ADD MSTORE PUSH1 0x20 DUP2 ADD SWAP1 POP PUSH2 0x444 JUMP JUMPDEST DUP4 DUP2 GT ISZERO PUSH2 0x46E JUMPI PUSH1 0x0 DUP5 DUP5 ADD MSTORE JUMPDEST POP POP POP POP JUMP JUMPDEST PUSH1 0x0 PUSH1 0x2 DUP3 DIV SWAP1 POP PUSH1 0x1 DUP3 AND DUP1 PUSH2 0x48C JUMPI PUSH1 0x7F DUP3 AND SWAP2 POP JUMPDEST PUSH1 0x20 DUP3 LT DUP2 EQ ISZERO PUSH2 0x4A0 JUMPI PUSH2 0x49F PUSH2 0x506 JUMP JUMPDEST JUMPDEST POP SWAP2 SWAP1 POP JUMP JUMPDEST PUSH2 0x4AF DUP3 PUSH2 0x578 JUMP JUMPDEST DUP2 ADD DUP2 DUP2 LT PUSH8 0xFFFFFFFFFFFFFFFF DUP3 GT OR ISZERO PUSH2 0x4CE JUMPI PUSH2 0x4CD PUSH2 0x535 JUMP JUMPDEST JUMPDEST DUP1 PUSH1 0x40 MSTORE POP POP POP JUMP JUMPDEST PUSH32 0x4E487B7100000000000000000000000000000000000000000000000000000000 PUSH1 0x0 MSTORE PUSH1 0x11 PUSH1 0x4 MSTORE PUSH1 0x24 PUSH1 0x0 REVERT JUMPDEST PUSH32 0x4E487B7100000000000000000000000000000000000000000000000000000000 PUSH1 0x0 MSTORE PUSH1 0x22 PUSH1 0x4 MSTORE PUSH1 0x24 PUSH1 0x0 REVERT JUMPDEST PUSH32 0x4E487B7100000000000000000000000000000000000000000000000000000000 PUSH1 0x0 MSTORE PUSH1 0x41 PUSH1 0x4 MSTORE PUSH1 0x24 PUSH1 0x0 REVERT JUMPDEST PUSH1 0x0 DUP1 REVERT JUMPDEST PUSH1 0x0 DUP1 REVERT JUMPDEST PUSH1 0x0 DUP1 REVERT JUMPDEST PUSH1 0x0 DUP1 REVERT JUMPDEST PUSH1 0x0 PUSH1 0x1F NOT PUSH1 0x1F DUP4 ADD AND SWAP1 POP SWAP2 SWAP1 POP JUMP INVALID LOG2 PUSH5 0x6970667358 0x22 SLT KECCAK256 0xE3 SIGNEXTEND JUMPI MLOAD 0xA9 0x24 RETURNDATACOPY 0x28 PUSH16 0x760ED0F86EC9C54D3C5D8A115B0EE884 CALLDATASIZE 0xD4 0xCB ORIGIN DUP7 SELFDESTRUCT 0xBF PUSH5 0x736F6C6343 STOP ADDMOD SMOD STOP CALLER "
		},
		"gasEstimates": {
			"creation": {
				"codeDepositCost": "294200",
				"executionCost": "infinite",
				"totalCost": "infinite"
			},
			"external": {
				"getAge()": "2459",
				"getName()": "infinite",
				"incrementAge()": "infinite",
				"setName(string)": "infinite"
			}
		},
		"methodIdentifiers": {
			"getAge()": "967e6e65",
			"getName()": "17d7de7c",
			"incrementAge()": "6840f0ae",
			"setName(string)": "c47f0027"
		}
	},
	"abi": [
		{
			"inputs": [],
			"stateMutability": "nonpayable",
			"type": "constructor"
		},
		{
			"inputs": [],
			"name": "getAge",
			"outputs": [
				{
					"internalType": "uint256",
					"name": "",
					"type": "uint256"
				}
			],
			"stateMutability": "view",
			"type": "function"
		},
		{
			"inputs": [],
			"name": "getName",
			"outputs": [
				{
					"internalType": "string",
					"name": "",
					"type": "string"
				}
			],
			"stateMutability": "view",
			"type": "function"
		},
		{
			"inputs": [],
			"name": "incrementAge",
			"outputs": [],
			"stateMutability": "nonpayable",
			"type": "function"
		},
		{
			"inputs": [
				{
					"internalType": "string",
					"name": "_name",
					"type": "string"
				}
			],
			"name": "setName",
			"outputs": [],
			"stateMutability": "nonpayable",
			"type": "function"
		}
	]
}